:100000002BC04FC0B8C64DC04CC04BC04AC049C041
:1000100048C047C046C08AC344C043C042C041C074
:1000200040C000003A00370000003B0038000000EC
:100030003900360001010101010101010202020142
:1000400002040810204080040201000000000004A7
:10005000030201000000B00A11241FBECFE5D2E068
:10006000DEBFCDBF11E0A0E6B0E0E4E7F9E102C0F9
:1000700005900D92AE30B107D9F721E0AEE0B1E0C6
:1000800001C01D92A236B207E1F710E0CCE2D0E049
:1000900003C02197FE0162DCCB32D107D1F752D7E2
:1000A00067CCAECFCF92DF92EF92FF920F931F9368
:1000B000CF93DF936C017A018B01C0E0D0E0CE15C5
:1000C000DF0589F0D8016D918D01D601ED91FC918C
:1000D0000190F081E02DC6010995892B11F47E0174
:1000E00002C02196ECCFC701DF91CF911F910F91F4
:1000F000FF90EF90DF90CF900895823099F018F440
:10010000813069F00895833019F0843021F008952A
:100110008FB58F7702C08FB58F7D8FBD089580B763
:100120008F7702C080B78F7D80BF08951F93CF93D4
:10013000DF93282F30E0F901E65BFF4F8491F9014E
:10014000E15CFF4FD491F901EC5CFF4FC491CC23EB
:10015000C1F0162F8111D1DFEC2FF0E0EE0FFF1F61
:10016000E85DFF4FA591B4918FB7F894111105C0C8
:100170009C91ED2FE095E92302C0EC91ED2BEC93DF
:100180008FBFDF91CF911F910895CF93DF9390E0C0
:10019000FC01E15CFF4F2491FC01EC5CFF4F84917A
:1001A000882361F190E0880F991FFC01EE5DFF4FFD
:1001B000C591D491FC01E85DFF4FA591B491611107
:1001C00009C09FB7F8948881209582238883EC9199
:1001D0002E230BC0623061F49FB7F8943881822FD0
:1001E000809583238883EC912E2B2C939FBF06C090
:1001F0008FB7F894E8812E2B28838FBFDF91CF91A2
:100200000895CF92DF92EF92FF920F931F93CF93B7
:10021000DF931F92CDB7DEB7162F8770880F880F38
:10022000880F682F60648DE291E07983C9D282E003
:1002300090E00197F1F7C12E7981D72E8601085FF2
:100240001F4F84E0E82EF12CF60161916F018DE2E1
:1002500091E093D1C7010197F1F7C016D106A1F73C
:100260000F90DF91CF911F910F91FF90EF90DF9052
:10027000CF900895CF92DF92EF92FF924BD26B0115
:100280007C012AE0C20ED11CE11CF11C43D26C158A
:100290007D058E059F0510F4ACD4F8CFFF90EF904C
:1002A000DF90CF90089560DBCF93DF93CDB7DEB7BB
:1002B00028970FB6F894DEBF0FBECDBF1D8290E425
:1002C0009E8324E12F8324E5288719829A8390E175
:1002D0009B8390E59C8390913401691710F06FEF38
:1002E000690F40913501262F30E0FE01E20FF31F28
:1002F000403121F4943011F4918101C09581682F2F
:10030000690F60688DE291E028960FB6F894DEBF21
:100310000FBECDBFDF91CF9153C2CF93DF93C7EE16
:10032000D3E061E088E002DF86E490E0B0D160E0F5
:1003300088E0FCDE88E290E0AAD1219791F7DF9176
:10034000CF910895009761F0FC0101900020E9F73A
:100350003197AF01481B590BBC018DE291E0A2CE51
:1003600080E090E00895EECFEDE2F1E065816D7FF1
:1003700065836860CF0124C2E0912D01F0912E01C8
:100380000190F081E02D682F8DE291E00994EDE27B
:10039000F1E06581862F826085836A60CF0110C29B
:1003A000CF92DF92EF92FF920F931F93CF93DF9341
:1003B00000912C0181E08093180180911A0180FD49
:1003C00003C083E080931801D3D2882309F452C07C
:1003D0000F5F102FCAE1D1E0DD24DA94CC24C3945E
:1003E0008091180183709E012F5F3F4F7901882310
:1003F00069F1DC9888818FB980EFCED2D6988EEFE4
:10040000CBD29091180180FF0BC0892F817090FF93
:1004100005C081E08093180180E02CC092E00FC0FD
:10042000892F8570843071F480911A0181608093E6
:100430001A01C09218019CD2811115C09AE09093C4
:10044000180118C09E7F909318010BC0D69880EFBA
:10045000A3D28883113011F4DFB801C01FB88EEF2A
:100460009BD2E70103C0102FCAE1D1E0115009F07F
:10047000B7CF81E010922C01882381F0DE98DC9ABE
:10048000CC9BFECF00C000C0DE9A00C000C00000C0
:10049000759907C084E08093180104C08091180109
:1004A00001C080E0DF91CF911F910F91FF90EF90FD
:1004B000DF90CF900895CF93DF93282F30E0F9019C
:1004C000E65BFF4F8491F901E15CFF4FD491F901A4
:1004D000EC5CFF4FC491CC2389F081110EDEEC2F30
:1004E000F0E0EE0FFF1FE25DFF4FA591B491EC919C
:1004F000ED2381E090E021F480E002C080E090E014
:10050000DF91CF9108953FB7F89480915E0190916B
:100510005F01A0916001B091610122B708B600FEB1
:1005200005C02F3F19F00196A11DB11D3FBFBA2F85
:10053000A92F982F8827820F911DA11DB11DBC01E5
:10054000CD0146E0660F771F881F991F4A95D1F7A6
:10055000089521E001C0220F6A95EAF7DC011C969C
:100560002C931C971A965C934E931997ED91FC91DE
:100570000084F185E02D60E00994DC01ED91FC91AF
:100580000284F385E02D41E0099581E090E0089533
:1005900008950895FC012381222379F081818095BB
:1005A000682360838281880F80931A01808191E0A3
:1005B00090932C0180931B01F3DE81E090E008957D
:1005C000EF92FF920F931F93CF938C01FC017596CE
:1005D00084E0C0E060FF02C09081C92B6695815025
:1005E00031968111F7CF413011F4F8014489F801B7
:1005F0008585C82BC42B7801FEE0EF0EF11CF801B5
:1006000062896C2BC701C6DFF801628960956C2393
:10061000C701CF911F910F91FF90EF90BBCF0F9328
:100620001F93CF93DF93062F0F70423019F440E0F1
:10063000602F0FC0142F262FEC0130E0B90184E0A9
:10064000759567958A95E1F7CE01BADF412F602F46
:10065000CE01DF91CF911F910F91B2CFFC01848524
:100660008823A1F0218532852115310519F4611106
:1006700006C007C02130310521F4611102C0858711
:1006800001C015866585CF010E9684CF08958A3105
:10069000910538F046979695879596958795019799
:1006A000F1F708958F929F92AF92BF92CF92DF920F
:1006B000EF92FF926B017C0126DF4B015C01C114BC
:1006C000D104E104F104E9F01EDFDC01CB0188195B
:1006D0009909AA09BB09883E9340A105B10578F3A1
:1006E00021E0C21AD108E108F10888EE880E83E003
:1006F000981EA11CB11CC114D104E104F10421F71E
:10070000DECFFF90EF90DF90CF90BF90AF909F90A3
:100710008F9008952FB7F89460915A0170915B0102
:1007200080915C0190915D012FBF08951F920F92FF
:100730000FB60F9211242F933F938F939F93AF93F4
:10074000BF9380915A0190915B01A0915C01B0919F
:100750005D013091590120E3230F2D3720F440969D
:10076000A11DB11D05C023EB230F4196A11DB11D95
:100770002093590180935A0190935B01A0935C01EF
:10078000B0935D0180915E0190915F01A091600145
:10079000B09161010196A11DB11D80935E019093FE
:1007A0005F01A0936001B0936101BF91AF919F91F0
:1007B0008F913F912F910F900FBE0F901F90189522
:1007C000DC01ED91FC910284F385E02D40E0099479
:1007D00061E0F6DF8EEE91E00197F1F708950F9357
:1007E0001F93CF93DF93EC01423018F08C81886027
:1007F0008C834F836887222329F0413019F48C8140
:1008000084608C8364E670E080E090E04BDF6C8174
:1008100064FD31C0E881F9810284F385E02D42E076
:1008200063E0CE0109958FE594E00197F1F7E88147
:10083000F9810284F385E02D42E063E0CE01099561
:1008400000E210E0C8010197F1F7E881F981028424
:10085000F385E02D42E063E0CE010995C8010197E0
:10086000F1F7E881F9810284F385E02D42E062E04E
:10087000CE01099514C06062CE01A2DF8FE594E03D
:100880000197F1F76C816062CE019ADF00E210E01F
:10089000C8010197F1F76C816062CE0191DFC80158
:1008A0000197F1F76C816062CE018ADF89E090E008
:1008B0000197F1F784E08D836CE0CE0181DFCE01FA
:1008C00087DF82E08E8366E0CE017ADFE881F981FE
:1008D0000084F185E02D6FEFCE01DF91CF911F9164
:1008E0000F910994EF92FF921F93CF93DF9300D063
:1008F000CDB7DEB77C01162FFC018385808BDE9A95
:10090000DC9AD49AD69A8FEF8FB98AE28DB980EFAC
:100910008EB9808910922C01880F80931A012A8346
:1009200049833EDD81E0F701818B2A81498188235B
:10093000A9F0E0915801EF5FE0935801F0E0E65E26
:10094000FE4F8081F70186871786148260E0C70119
:100950000E962A8349831EDE49812A81612FC701B1
:100960000F900F90DF91CF911F91FF90EF9037CFB5
:10097000DC9ADC9BFECF00C000C00000DE9800C007
:1009800000C0DC98DE9A779905C083E08093180157
:1009900080E0089581E008958EB98BE200C000C028
:1009A00000008DB9CC9BFECF00C000C08DB9769BF6
:1009B000F5CF00C000C000008FB19FEF9FB9D69A5D
:1009C0000895F4C580918B00823059F018F481307D
:1009D00031F00895833041F0843049F0089560E0AB
:1009E00007C061E082E005C061E088E002C061E02C
:1009F0008DE05ACC8F929F92AF92BF92CF92DF92AE
:100A0000EF92FF92CF93DF93CDB7DEB7A1970FB6EA
:100A1000F894DEBF0FBECDBF6C018AE0C816D104CA
:100A200024F483EF90E09FDC04C094E6C916D1045F
:100A30001CF483EF90E097DC0D2C000CEE08FF080F
:100A4000F7FE21C08DE298DC22273327A9012C195B
:100A50003D094E095F0919A2FE01B1967F019AE096
:100A6000892E912CA12CB12CCA01B901A5019401A8
:100A700053D7605DF70162937F0121153105410570
:100A8000510591F719C0A701960119A2CE018196CF
:100A90007C018AE0882E912CA12CB12CCA01B901CD
:100AA000A501940139D7605DF70162937F0121159B
:100AB00031054105510591F7C70144DCA1960FB6F8
:100AC000F894DEBF0FBECDBFDF91CF91FF90EF90C6
:100AD000DF90CF90BF90AF909F908F9008958AE065
:100AE000EADC892B21F480915701882351F08AE0B8
:100AF000E2DC892B29F08091570181110CC0089507
:100B0000089581E0809357012FDC60E087E0CCDB23
:100B100082E032DC09C01092570126DC60E087E0F9
:100B2000C3DB83EF90E01FDC4DDF31CC8F929F92CF
:100B3000AF92BF92CF92DF92EF92FF92CF93DF936B
:100B400019BC18BC6AE070E080E090E0ABDD1D9855
:100B500083E087B9369A3699FECF64B185B170E0EB
:100B6000EB01D82BC93E23E0D2070CF0DFD4D2DD55
:100B7000613A7F408105910510F02097B9F380918B
:100B80004E0190914F0199BD88BDBE01DD0F880BCC
:100B9000990BBAD56B017C012FE737E842E259EB9C
:100BA0003FD6A70196013CD64B015C0120EB32E712
:100BB00048E05FE3C701B60133D69B01AC01C50134
:100BC000B4010BD52AE939E945E152E406D520E024
:100BD00030E040E05FE301D564D5CB01DF91CF91F8
:100BE000FF90EF90DF90CF90BF90AF909F908F904D
:100BF0000895CF92DF92EF92FF920F931F93CF93BE
:100C0000DF9388DD0091530110915401209155012B
:100C1000309156010C591F4F2F4F3F4F60177107EE
:100C20008207930708F49EC081DF9093520180935E
:100C300051010091140110911501801B910B97FF38
:100C400003C0919581959109C39764F01093520167
:100C500000935101809150018F5F809350018B3040
:100C600018F064D41092500180915701C091510145
:100C7000D0915201882361F08CE390E08C1B9D0B96
:100C800067E070E038D690934F0180934E0144C0E6
:100C90006091890070918A006C1B7D0B072E000CFF
:100CA000880B990B31D520E030E040E151E4B8D514
:100CB0006B017C0180914E0190914F01BC01990F15
:100CC000880B990B21D52DEC3CEC4CE45EE3A8D5C8
:100CD0009B01AC01C701B60180D4E3D4072E000C00
:100CE000880B990B11D56B017C01CE01801B910BF8
:100CF000BC01990F880B990B07D520E030E04CE937
:100D000051E48ED59B01AC01C701B60165D4C9D4AD
:100D100070934F0160934E0180914E0190914F016D
:100D20008F3F23E092072CF497FF05C080E090E00E
:100D300002C08FEF93E090934F0180934E0199BDD5
:100D400088BD80915101909152019093150180933B
:100D50001401E0DC609353017093540180935501BA
:100D600090935601DF91CF911F910F91FF90EF90DB
:100D7000DF90CF9008951F920F920FB60F9211241B
:100D80002F933F934F935F936F937F938F939F9393
:100D9000AF93BF93CF93DF93EF93FF9381E08BDB10
:100DA000EC0180E088DBE0914D01CC0FDD1F8C2B46
:100DB000EF70F0E0EE0FFF1FEE0FFF1FE80FF11DC9
:100DC000E457FF4F808180934D0180914D018073E6
:100DD000803131F48091160190911701019607C07E
:100DE000803249F4809116019091170101979093F8
:100DF000170180931601FF91EF91DF91CF91BF9181
:100E0000AF919F918F917F916F915F914F913F91A2
:100E10002F910F900FBE0F901F901895CF92DF92D9
:100E2000EF92FF926091510170915201072E000CD8
:100E3000880B990B69D423E333E343E35FE3F0D4F6
:100E40006B017C018091120190911301BC01990FFB
:100E5000880B990B59D42AE939E949E95EE3E0D4D2
:100E60009B01AC01C701B601B8D31BD47093130129
:100E7000609312012091100130911101261737075C
:100E8000E1F160E080E010DA8091120190911301AD
:100E9000B1DD809112019091130190931101809323
:100EA000100190DD8091890090918A0020911201BB
:100EB00030911301821B930B0496099758F480918B
:100EC0004C01811107C080918800811126DA81E0F0
:100ED00080934C018091890090918A0020911201A9
:100EE00030911301821B930B97FF03C0919581955D
:100EF00091090A9714F010924C01209189003091C9
:100F00008A0080910E0190910F0128173907A9F0EE
:100F100060E08BE0C9D98091890090918A006ADDF8
:100F20008091890090918A0090930F0180930E0127
:100F3000FF90EF90DF90CF9045CDFF90EF90DF9046
:100F4000CF900895CF93DF931F92CDB7DEB77894FB
:100F500080B7826080BF80B7816080BF83B78260C6
:100F600083BF83B7816083BF89B7816089BF1EBC9F
:100F70008EB582608EBD8FB581608FBD3298319AFB
:100F8000309A379A83E881BF62E080E0FED862E061
:100F900081E0FBD862E082E0F8D862E08AE0F5D830
:100FA00061E085E0F2D861E088E0EFD880E090E091
:100FB00008DD182F81E090E004DDE12EF12CF82A05
:100FC000F0924B01E0924A0182E090E0FADC182FA7
:100FD00083E090E0F6DC212F30E0382B309349019C
:100FE0002093480184E090E0ECDC182F85E090E04D
:100FF000E8DC212F30E0382B309347012093460165
:1010000086E090E0DEDC91E0811101C090E09093F9
:101010008800EF20E094A9F48CED90E090934B01D0
:1010200080934A0184E091E09093490180934801C4
:101030008CE291E0909347018093460181E0809398
:10104000880083E28FBD81E08EBD19BC18BC8BB7D0
:1010500080618BBF82B3836082BB789420E042E0E2
:1010600060E18DE291E03EDC60E870E081E0C9D8AB
:1010700068E770E082E0C5D860E770E083E0C1D83F
:1010800068E670E084E0BDD860E670E085E0B9D83D
:101090008DE291E09DDB4ADD909315018093140170
:1010A000909313018093120182E005DA892B09F0F5
:1010B00040C088EB90E057D984E05ED980918800E9
:1010C000882319F085E058D903C083EF90E04BD90D
:1010D00082EF90E048D981E04FD961E080E0E4D828
:1010E00080914A0190914B0185DC84EC90E03BD9E2
:1010F00080914801909149017DDC88EC90E033D9E2
:10110000809146019091470175DC8BEC90E02BD9E2
:101110003ED9B0D882E0CFD9892BD9F382E0CBD9A0
:1011200020918B00892B09F0FAC0223009F0F7C01A
:101130000EC08EEC90E017D961E080E0B5D88CED60
:1011400090E011D96CED75E080E090E0ABDA609151
:101150004A0110914B0180E090E0698327D26981B8
:10116000681719F080E090E029D281E090E01ED26B
:10117000181721F0612F81E090E020D260914801A2
:101180001091490182E090E0698310D2698168176B
:1011900019F082E090E012D283E090E007D21817B5
:1011A00021F0612F83E090E009D260914601109117
:1011B000470184E090E06983F9D16981681719F0EB
:1011C00084E090E0FBD185E090E0F0D1181721F0A9
:1011D000612F85E090E0F2D16091880086E090E098
:1011E0006983E4D16981681719F086E090E0E6D15F
:1011F0008DE291E0EDDA8091120190911301FADB1A
:10120000809112019091130190931101809310012C
:101210008DEE90E0A8D883E0AFD8809189009091BE
:101220008A00E8DB8091890090918A0090930F01F9
:1012300080930E018BEC90E096D861E080E034D88A
:1012400080914A0190914B01D5DB84EC90E08BD8E2
:101250008091480190914901CDDB88EC90E083D8E2
:101260008091460190914701C5DB8BEC90E07BD8E3
:1012700081E080938B0060E08DE016D888D880E014
:10128000E82E80E0F82E11E0B4DCC8DD82E013D94E
:10129000892BA9F480918B00823088F408C1A9DCE5
:1012A000BDDD1DDC2091160130911701211531059E
:1012B00009F0FFC082E0FFD8892B89F3DBD780914A
:1012C000160190911701009799F090918B00890F6A
:1012D00010921701109216019CEF980F9C3F20F07E
:1012E000811103C081E001C084E080938B006ADB40
:1012F00082E0E1D8892B61F480918B00813009F084
:10130000F3C006C0B7D710938B0060E08DE0CCD758
:10131000E6DBE114F10409F4B7CF72D6B5CF8091C2
:101320001601820F10921701109216019BEF980F71
:101330009B3F08F4BAC0811101C081E080938B000B
:10134000833071F018F4823041F004C0843059F0D9
:10135000853061F060E08CE00BC060E08FE008C099
:1013600061E082E005C061E088E002C061E08DE0FC
:101370009BD782E0A0D8892B09F095C010918B00F3
:10138000123009F490C076D7809116019091170120
:10139000892B79F31330F9F018F4113039F07EC04D
:1013A0001430D1F1153009F458C078C0809188000C
:1013B00081278093880060E08CE076D78091880058
:1013C000882319F085E0D8D703C083EF90E0CBD70E
:1013D00060E08CE062C061E080E066D720914A0165
:1013E00030914B018091160190911701820F931F4C
:1013F000803921E0920734F4823391052CF482E3A2
:1014000090E002C080E991E090934B0180934A0103
:10141000F1DA61E082E041C061E086E045D72091E9
:101420004801309149018091160190911701820F76
:10143000931F803921E0920734F4823391052CF414
:1014400082E390E002C080E991E0909349018093AB
:101450004801D0DA61E088E020C061E08BE024D769
:10146000209146013091470180911601909117011A
:10147000820F931F803921E0920734F48233910563
:101480002CF482E390E002C080E991E09093470160
:1014900080934601AFDA61E08DE006D71092170124
:1014A0001092160166CFE6D639CE85E047CFE2D658
:1014B00001CF8091890090918A00820F931F109232
:1014C000170110921601803921E0920734F482331B
:1014D00091052CF482E390E002C080E991E09093C2
:1014E0008A0080938900E6CE8330C9F48091480158
:1014F0009091490106C0823041F480914A01909157
:101500004B0190938A0080938900B4D682E0D3D7B0
:10151000892B09F0F7CE6DDB81DCE1DAF7CF84307F
:1015200051F78091460190914701EBCF19BC18BC4F
:101530008DE291E04DD918D785EF90E014D761E0A6
:1015400080E0B2D681E091E00ED7C4E0D0E0E5D6ED
:1015500064E670E080E090E0A5D82197C1F7FFCF66
:10156000EDE2F1E0138212828CEA90E091838083B5
:10157000108A8FEF87871686118A87E28387148601
:1015800015861286118684E0828B82E0838B81E04F
:10159000848B80E1858B80E2868B80E4878B80E87A
:1015A000808F40E050E063E0CF01D3C7E199FECFE8
:1015B0009FBB8EBBE09A99278DB30895262FE199A2
:1015C000FECF1CBA9FBB8EBB2DBB0FB6F894E29A20
:1015D000E19A0FBE019608955058BB27AA270ED056
:1015E000E5C0D6D030F0DBD020F031F49F3F11F4CD
:1015F0001EF4CBC00EF4E095E7FBC1C0E92FE7D0A5
:1016000080F3BA17620773078407950718F071F41F
:101610009EF5FFC00EF4E0950B2EBA2FA02D0B0106
:10162000B90190010C01CA01A0011124FF27591B27
:1016300099F0593F50F4503E68F11A16F040A22F2D
:10164000232F342F4427585FF3CF4695379527959E
:10165000A795F0405395C9F77EF41F16BA0B620B9D
:10166000730B840BBAF09150A1F0FF0FBB1F661FE4
:10167000771F881FC2F70EC0BA0F621F731F841F27
:1016800048F4879577956795B795F7959E3F08F04D
:10169000B3CF9395880F08F09927EE0F979587950C
:1016A000089504D06894B111B5C0089598D088F019
:1016B0009F5790F0B92F9927B751A0F0D1F0660F3E
:1016C000771F881F991F1AF0BA95C9F712C0B13059
:1016D00081F09FD0B1E008959CC0672F782F8827B4
:1016E000B85F39F0B93FCCF3869577956795B39598
:1016F000D9F73EF490958095709561957F4F8F4F07
:101700009F4F0895E89409C097FB3EF4909580950B
:10171000709561957F4F8F4F9F4F9923A9F0F92FB7
:1017200096E9BB279395F695879577956795B79535
:10173000F111F8CFFAF4BB0F11F460FF1BC06F5F1B
:101740007F4F8F4F9F4F16C0882311F096E911C02D
:10175000772321F09EE8872F762F05C0662371F04E
:1017600096E8862F70E060E02AF09A95660F771F62
:10177000881FDAF7880F9695879597F9089597F956
:101780009F6780E870E060E008959FEF80EC089527
:1017900000240A9416161706180609060895002450
:1017A0000A9412161306140605060895092E0394CA
:1017B000000C11F4882352F0BB0F40F4BF2B11F43E
:1017C00060FF04C06F5F7F4F8F4F9F4F089557FD9D
:1017D0009058440F551F59F05F3F71F04795880F9F
:1017E00097FB991F61F09F3F79F087950895121636
:1017F00013061406551FF2CF4695F1DF08C01616E2
:1018000017061806991FF1CF869571056105089492
:101810000895E894BB2766277727CB0197F90895A9
:101820000AD0C4CFB5DF28F0BADF18F0952309F04D
:10183000A6CFABCFEFCFCBDFA8F39923D9F35523B6
:10184000C9F3950F50E0551FAA27EE27FF27BB27A6
:1018500000240894679520F4E20FF31FB41F0A1EBA
:10186000220F331F441FAA1F6695A9F7779530F4FE
:10187000F30FB41F0A1E121E08F46395330F441FA2
:10188000AA1F221F769599F7879520F4B40F0A1E98
:10189000121E631F440FAA1F221F331F8695A9F72C
:1018A000862F712D602D11249F5750408AF0E1F052
:1018B00088234AF0EE0FFF1FBB1F661F771F881F8C
:1018C00091505040A9F79E3F510570F058CFA2CFDC
:1018D0005F3FECF3983EDCF3869577956795B79577
:1018E000F795E7959F5FC1F7FE2B880F911D9695A1
:1018F000879597F908950024552704C0080E591FAD
:10190000880F991F009729F076956795B8F37105B0
:10191000B9F7802D952F0895A1E21A2EAA1BBB1BA3
:10192000FD010DC0AA1FBB1FEE1FFF1FA217B307AB
:10193000E407F50720F0A21BB30BE40BF50B661FC1
:10194000771F881F991F1A9469F760957095809585
:1019500090959B01AC01BD01CF010895EE0FFF1FD3
:101960000590F491E02D099481E090E0F89400C096
:04197000F894FFCF19
:101974000408101C1008040001030F0F0F030100DA
:101984000004061F1F060400000E1517110E0000A8
:10199400040E1F04041C0000013C000100020400AA
:1019A400030001100302000003020100060004000A
:1019B400060500200605040000000000BD025200D8
:1019C4007204A9022E030F035374616E646172647E
:1019D4003A202000DF202000DF2000DF4300202009
:1019E400204CEF7473746174696F6E004657203134
:1019F4002E32206279204F453143475300DF432084
:101A04002020202000202020205741524E554E47B0
:0E1A1400002020204CEF74737069747A650016
:00000001FF
