:100000002BC04FC04EC04DC04CC04BC04AC049C0B1
:1000100048C047C046C090C444C043C042C041C06D
:1000200040C000003A00370000003B0038000000EC
:100030003900360001010101010101010202020142
:1000400002040810204080040201000000000004A7
:10005000030201000000C90611241FBECFE5D2E053
:10006000DEBFCDBF21E0AAE0B1E001C01D92A53402
:10007000B207E1F711E0A0E6B0E0E0EAF2E102C089
:1000800005900D92AA30B107D9F710E0CCE2D0E08C
:1000900003C02197FE010DD7CB32D107D1F796D4FB
:1000A000FDC8AECFAF92BF92CF92DF92EF92FF9298
:1000B0000F931F93CF93DF936C017B018B01040F90
:1000C000151FEB015E01AE18BF08C017D10759F02C
:1000D0006991D601ED91FC910190F081E02DC6016E
:1000E0000995892B79F7C501DF91CF911F910F9168
:1000F000FF90EF90DF90CF90BF90AF900895823047
:10010000A1F018F4813069F00895833019F084303B
:1001100029F008958FB58F778FBD08958FB58F7DA6
:10012000FBCF80B78F7780BF089580B78F7DFBCFDF
:10013000CF93DF93282F30E0F901E65BFF4F8491E6
:10014000F901E15CFF4FD491F901EC5CFF4FC491E0
:10015000CC2399F08111D3DFEC2FF0E0EE0FFF1FDD
:10016000E25DFF4FA591B491EC91ED2381E090E029
:1001700009F480E0DF91CF91089580E090E0FACF1C
:100180001F93CF93DF93282F30E0F901E65BFF4FF9
:100190008491F901E15CFF4FD491F901EC5CFF4FD0
:1001A000C491CC23A1F0162F8111A9DFEC2FF0E030
:1001B000EE0FFF1FE85DFF4FA591B4918FB7F89444
:1001C000EC91111108C0D095DE23DC938FBFDF9135
:1001D000CF911F910895DE2BF8CFCF93DF9390E05E
:1001E000FC01E15CFF4F24918C5C9F4FFC018491EA
:1001F0008823D1F090E0880F991FFC01EE5DFF4F3E
:10020000A591B491FC01E85DFF4FC591D491623096
:1002100071F49FB7F8943C91822F809583238C933F
:10022000E8812E2B28839FBFDF91CF9108958FB750
:10023000F894EC912E2B2C938FBFF6CF8A31910539
:1002400038F0469796958795969587950197F1F79B
:1002500008953FB7F89480910C0190910D01A09101
:100260000E01B0910F0122B708B600FE05C02F3F66
:1002700019F00196A11DB11D3FBFBA2FA92F982FCC
:100280008827BC01CD01620F711D811D911D46E0C3
:10029000660F771F881F991F4A95D1F708958F928F
:1002A0009F92AF92BF92CF92DF92EF92FF924B015B
:1002B0005C01CFDF6B017C01CCDF6C197D098E09FD
:1002C0009F09683E734081059105B0F321E0821AD1
:1002D0009108A108B10888EEC80E83E0D81EE11C81
:1002E000F11C81149104A104B10431F7FF90EF9047
:1002F000DF90CF90BF90AF909F908F90089521E0B6
:1003000001C0220F6A95EAF7DC011C962C931C971A
:100310001A965C934E931997ED91FC910484F585A0
:10032000E02D60E00994DC01ED91FC910684F785F5
:10033000E02D41E0099581E090E00895DC01ED9128
:10034000FC910684F785E02D40E009940F931F93FC
:10035000CF93DF93CDB7DEB728970FB6F894DEBF03
:100360000FBECDBF009168001091690020916A0016
:1003700030916B000D831E832F83388700916C00B2
:1003800010916D0020916E0030916F0009831A83E7
:100390002B833C8390912F01691710F06FEF690F49
:1003A000262F30E0409130012C0F3D1FF9014031E4
:1003B00091F4943081F46181680F606888E291E083
:1003C00028960FB6F894DEBF0FBECDBFDF91CF9158
:1003D0001F910F91B3CF6581EFCF61E0AFDF8EEE5C
:1003E00091E00197F1F708950F931F93CF93DF9357
:1003F000EC01423018F08C8188608C834F836887D1
:10040000222329F0413019F48C8184608C8364E6C6
:1004100070E080E090E043DF6C8164FD53C0E881D0
:10042000F9810684F785E02D42E063E0CE0109956D
:100430008FE594E00197F1F7E881F9810684F7856B
:10044000E02D42E063E0CE01099500E210E0C80132
:100450000197F1F7E881F9810684F785E02D42E004
:1004600063E0CE010995C8010197F1F7E881F981B0
:100470000684F785E02D42E062E0CE010995C801CF
:100480000197F1F76C816062CE0158DF89E090E05E
:100490000197F1F784E08D836CE0CE014FDFCE0150
:1004A0009CDF82E08E8366E0CE0148DFE881F9813F
:1004B0000484F585E02D6FEFCE01DF91CF911F9180
:1004C0000F9109946062CE0139DF8FE594E00197C6
:1004D000F1F76C816062CE0131DF00E210E0C8010B
:1004E0000197F1F76C816062CE0128DFC8CF0895D3
:1004F0000895089590E080E00895FC0101900020A7
:10050000E9F73197AF01481B590BBC0188E291E034
:10051000C9CD61E080E01ADF84E890E0EEDF82E0A0
:1005200007DE0197E1F382E003DE892BE1F364E665
:1005300070E080E090E0B3CEDC9ADC9BFECF00C0A0
:1005400000C00000DE9800C000C0DC98DE9A7799F9
:1005500005C083E08093140180E0089581E0089550
:100560008EB98BE200C000C000008DB9CC9BFECFDD
:1005700000C000C08DB9769BF5CF00C000C0000060
:100580008FB19FEF9FB9D69A0895CF92DF92EF92E5
:10059000FF920F931F93CF93DF930091270181E088
:1005A000809314018091150180FD03C083E0809346
:1005B0001401C2DF882311F10F5F102FC5E1D1E0D4
:1005C000DD24DA94CC24C3947E018FEFE81AF80A74
:1005D00080911401837009F447C0DC9888818FB939
:1005E00080EFBEDFD6988EEFBBDF9091140180FFC5
:1005F00012C081E090FF82E08093140110922701E5
:1006000080911401DF91CF911F910F91FF90EF9096
:10061000DF90CF900895892F8570843061F48091A8
:100620001501816080931501C092140185DF81114D
:1006300027C08AE0E1CF9E7F90931401E70111501B
:1006400009F0C2CF10922701DE98DC9ACC9BFECF36
:1006500000C000C0DE9A00C000C00000759914C040
:1006600084E080931401CECFD69880EF79DF888321
:10067000113021F4DFB88EEF73DFE0CF1FB8FBCF6E
:10068000102FC5E1D1E0DBCF80E0BCCFFC0123819E
:100690002223C1F0262F6181622B60838281880F23
:1006A00080931501808191E090932701809316013A
:1006B0006CDF282F30E081E090E0232B11F090E0F8
:1006C00080E0089530E020E0F6CFEF92FF920F93A4
:1006D0001F93CF938C01FC0184E0C0E0262F30E013
:1006E00060FF02C09589C92BB90175956795815046
:1006F00031968111F3CF413011F4F8014489F801AA
:100700006585C62BC42B7801FEE0EF0EF11CF801C5
:1007100062896C2BC701BADFF801628960956C238E
:10072000C701CF911F910F91FF90EF90AFCF0F9323
:100730001F93CF93DF93062F0F70423039F440E0C0
:10074000602FDF91CF911F910F91BFCF142FEC013C
:1007500070E084E0759567958A95E1F7CE01B5DF85
:10076000412F602FCE01EDCFFC018485882399F0C5
:10077000218532852115310521F4611107C01586C7
:1007800006C021303105D9F76111F9CF858765851C
:10079000CF010E967BCF0895FF920F931F93CF93B7
:1007A000DF93EC01162F042FF22E8B85888BDE9AB7
:1007B000DC9AD49AD69A8FEF8FB98AE28DB980EFFE
:1007C0008EB9888910922701880F80931501DDDE8C
:1007D00081111CC081E0898BE0910A01EF5FE093F9
:1007E0000A01F0E0EB5EFE4F80818E871F861C823F
:1007F00060E0CE010E964ADF2F2D402F612FCE01F3
:10080000DF91CF911F910F91FF90EECD198AF4CF18
:10081000CF93DF93EC0188819981009709F0EBD3A6
:10082000198218821D821C821B821A82DF91CF914D
:100830000895FC0180819181009709F0DCC308953F
:1008400019D50F931F93CF93DF93EC018881998182
:10085000009759F02A813B812617370730F081E055
:10086000DF91CF911F910F9108958B016F5F7F4FA3
:100870004BD4009759F0998388831B830A832C817A
:100880003D81232B61F7FC011082E9CF80E0E8CFA6
:10089000EF92FF920F931F93CF93DF93EC017B01B5
:1008A0008A01BA01CEDF81110AC0CE01B1DFCE01CB
:1008B000DF91CF911F910F91FF90EF9008951D83CD
:1008C0000C83B70188819981E2D4F1CFEF92FF9236
:1008D0000F931F93CF93DF93CDB7DEB762970FB619
:1008E000F894DEBF0FBECDBF8C01CB01F8011182A1
:1008F000108213821282158214824AE09E012F5FB9
:100900003F4F7901B9016BD2F70101900020E9F75F
:100910003197AF014E195F09B701C801B9DF62967F
:100920000FB6F894DEBF0FBECDBFDF91CF911F9100
:100930000F91FF90EF9008951F920F920FB60F92B4
:1009400011242F933F938F939F93AF93BF938091E5
:10095000100190911101A0911201B09113013091F9
:100960000B0120E3230F2D3758F54096A11DB11D33
:1009700020930B018093100190931101A093120119
:10098000B093130180910C0190910D01A0910E0183
:10099000B0910F010196A11DB11D80930C019093A0
:1009A0000D01A0930E01B0930F01BF91AF919F91E4
:1009B0008F913F912F910F900FBE0F901F90189520
:1009C00023EB230F4196A11DB11DD2CFCF93DF930F
:1009D000CDB7DEB72C970FB6F894DEBF0FBECDBFF4
:1009E000789480B7826080BF80B7816080BF83B712
:1009F000826083BF83B7816083BF89B7816089BF0D
:100A00001EBC8EB582608EBD8FB581608FBD329861
:100A1000319A309A379A20E042E060E188E291E032
:100A2000BBDE61E088E291E09FDE60E080E08EDC8A
:100A300085E990E062DD62E080E0CFDB62E081E0AA
:100A4000CCDB62E082E0C9DB62E08AE0C6DB61E029
:100A500085E0C3DB61E089E0C0DB61E088E0BDDB0D
:100A600083E28FBD81E08EBD19BC18BC60ED77E0DC
:100A700080E090E014DC88E291E0AFDC4ADD88E2BF
:100A800091E0ABDC60E080E061DC80EA90E035DDA5
:100A900061E080E05BDC8AE04BDB61E070E0892BA9
:100AA00011F070E060E0CE01019610DF18861F8221
:100AB0001A8619861C861B8646E050E06DEA70E0B7
:100AC000CE010796E5DEE980FA80E114F10409F42D
:100AD000BDC00D811E8101151105A9F08B859C8576
:100AE000080F191FB801CE010796ABDE882309F461
:100AF000ADC02F8138858B859C85B701820F931FF0
:100B0000C6D31C870B874B855C856F81788588E20F
:100B100091E0C8DACE0107968CDECE01019689DE1F
:100B20008AE006DB60E0892B09F061E088E028DBE1
:100B30008FB7F8944091100150911101609112010A
:100B4000709113018FBF61E086E000DC8AE0F0DA8B
:100B500061E070E0892B11F070E060E0CE01079653
:100B6000B5DE1A8219821C821B821E821D826F8151
:100B700078856115710529F04B855C85CE0101965C
:100B800087DE0D811E810E5F1F4FB801CE010196D9
:100B900058DE81115FC0CE0101963ADE4D815E8143
:100BA00069817A8188E291E07DDACE01019641DEA9
:100BB000CE0107963EDE8AE0BBDA60E0892B09F0C1
:100BC00061E088E0DDDA82E0B3DA892B09F0BBCF9F
:100BD00082E0AEDA892BE1F364E670E080E090E039
:100BE0005EDB88E291E0F9DB60E080E0AFDB87EB81
:100BF00090E083DC8FB7F894C0901001D090110181
:100C0000E0901201F09013018FBF2FB7F8948091FC
:100C1000100190911101A0911201B09113012FBF09
:100C20008C199D09AE09BF09843F9140A105B1050A
:100C3000E8F461E089E0A4DA84EF91E0FFDA60E0B3
:100C400089E09EDA84EF91E0F9DADFCFCE010796F2
:100C5000DFDD59CF29813A818D819E8164EB70E07F
:100C6000820F931F14D31E830D8398CF64EF71E01E
:100C700080E090E014DB4DDC88E291E0AEDB82ECBA
:100C800090E03BDC84E690E099BD88BD83E990E08C
:100C900034DC64EC79E080E090E001DB84EF91E00B
:100CA00099BD88BD83E990E028DC64EC79E080E0C0
:100CB00090E0F5DA8EEE92E099BD88BD83E990E090
:100CC0001CDC64EC79E080E090E0E9DA88EE93E007
:100CD00099BD88BD83E990E010DC64EC79E080E0A8
:100CE00090E0DDDA19BC18BC88E291E076DB8CEC90
:100CF00090E003DC0EDC88E291E06FDB60E080E0F6
:100D000025DB85ED90E0F9DB80E012DA8C01809143
:100D100060009091610008171907D9F001151105BD
:100D2000C1F488E291E059DB60E080E00FDB85ED03
:100D300090E0E3DB81E0FCD961E0892B29F580E0DC
:100D400005DB82EE90E0D9DB64EF71E080E090E0BB
:100D5000A6DA109361000093600082E0E9D9892B44
:100D600099F682E0E5D9892BE1F364E670E080E052
:100D700090E095DA88E291E030DB60E080E0E6DA4E
:100D800080E091E0BADBFFCF80E0E0DA81EF90E035
:100D9000DACFE8E2F1E01382128284E790E09183F7
:100DA0008083108A8FEF87871686118A87E2838770
:100DB000148615861286118684E0828B82E0838BEE
:100DC00081E0848B80E1858B80E2868B80E4878B59
:100DD00080E8808F50E040E063E0CF0190CABB27FD
:100DE0004A3031F4992322F4BDE2909581959F4FCA
:100DF00001C0BB27FB015527AA27880F991FAA1FEF
:100E0000A41710F0A41B83955051B9F7A05DAA3325
:100E100008F0A95DA193009779F7B111B1931192F0
:100E2000CB0100C0DC01FC01672F71917723E1F752
:100E3000329704C07C916D9370836291AE17BF07A7
:100E4000C8F308952F923F924F925F926F927F92D4
:100E50008F929F92AF92BF92CF92DF92EF92FF92CA
:100E60000F931F93CF93DF93CDB7DEB7CA1BDB0B76
:100E70000FB6F894DEBF0FBECDBF09942A8839881B
:100E800048885F846E847D848C849B84AA84B98422
:100E9000C884DF80EE80FD800C811B81AA81B9812E
:100EA000CE0FD11D0FB6F894DEBF0FBECDBFED0142
:100EB0000895EE0FFF1F0590F491E02D09940F9314
:100EC0001F93CF93DF938230910510F482E090E07E
:100ED000E0914301F091440130E020E0B0E0A0E077
:100EE000309799F42115310509F44AC0281B390BB4
:100EF00024303105D8F58A819B816115710589F10E
:100F0000FB0193838283FE0111C0408151810281E4
:100F1000138148175907E0F04817590799F41097BB
:100F200061F012960C93129713961C933296CF0190
:100F3000DF91CF911F910F9108950093430110937A
:100F40004401F4CF2115310551F04217530738F011
:100F5000A901DB019A01BD01DF01F801C1CFEF0159
:100F6000F9CF9093440180934301CDCFFE01E20F6E
:100F7000F31F819391932250310939832883D7CF6E
:100F80002091410130914201232B41F420916400D2
:100F9000309165003093420120934101209162001D
:100FA000309163002115310541F42DB73EB74091D2
:100FB000660050916700241B350BE0914101F091D0
:100FC0004201E217F307A0F42E1B3F0B2817390745
:100FD00078F0AC014E5F5F4F2417350748F04E0F95
:100FE0005F1F5093420140934101819391939FCFA2
:100FF000F0E0E0E09CCFCF93DF930097E9F0FC01B5
:10100000329713821282A0914301B0914401ED0105
:1010100030E020E01097A1F420813181820F931FEE
:1010200020914101309142012817390709F061C030
:10103000F0934201E0934101DF91CF910895EA01DD
:10104000CE17DF07E8F54A815B819E014115510506
:10105000B1F7E901FB83EA8349915991C40FD51F88
:10106000EC17FD0761F4808191810296840F951F32
:10107000E90199838883828193819B838A83F0E04D
:10108000E0E012968D919C9113970097B9F52D9100
:101090003C911197CD010296820F931F209141013F
:1010A000309142012817390739F6309751F51092DF
:1010B000440110924301B0934201A0934101BCCF7F
:1010C000D383C28340815181840F951FC817D907EC
:1010D00061F44E5F5F4F88819981480F591F51839A
:1010E00040838A819B81938382832115310509F096
:1010F000B0CFF0934401E09343019ECFFD01DC01AA
:10110000C0CF13821282D7CFB0E0A0E0E9E8F8E0C8
:101110009BCE8C01009741F4CB01D1DE8C01C8013C
:10112000CDB7DEB7E0E1ACCEFC01E60FF71F9C01C6
:1011300022503109E217F30708F499C0D901CD9183
:10114000DC911197C617D70790F0C530D10538F359
:10115000CE0104978617970710F3C61BD70B22976B
:10116000C193D1936D937C93CF0145DFD8CF5B01C1
:10117000AC1ABD0A4C018C0E9D1EA0914301B0918A
:101180004401512C412CF12CE12C109731F5809128
:101190004101909142018815990509F05CC04616FD
:1011A000570608F058C08091620090916300009744
:1011B00041F48DB79EB74091660050916700841B43
:1011C000950BE817F90708F052C0F0934201E0933D
:1011D0004101F90171836083A2CF8D919C91119798
:1011E00012966C90129713967C901397A815B905D8
:1011F00059F56C0142E0C40ED11CCA14DB0420F185
:10120000AC014A195B09DA011296159780F06282E7
:10121000738251834083D9016D937C93E114F1046F
:1012200071F0D7011396FC93EE93129778CF229624
:101230008C0F9D1FF90191838083F301EFCFF09311
:101240004401E09343016BCF4816590608F42C0182
:101250007D01D3019ACFCB0132DE7C01009739F0BA
:10126000AE01B8010BD0C801C6DE870158CF10E02F
:1012700000E055CF81E090E0F89410C0FB01DC0164
:1012800002C001900D9241505040D8F70895FB01E3
:10129000DC0101900D920020E1F70895F894FFCF52
:1012A000010000004501800000401454004010502F
:1012B00000000000930152007A027902CC037F0102
:1012C000B403970344727565636B65204B6E6F7052
:1012D000662E2E2E00485720544553542076320057
:1012E0005374616E64627920546573740053544280
:1012F000593A20002020005069657A6F20546573A8
:101300007400484541542054657374004845415465
:10131000204F464600456E636F64657220546573C6
:101320007400447265687420524543485453203E0B
:10133000004472656874204C494E4B5320203C0099
:0A1340005465737420456E64650067
:00000001FF
