:100000002BC04FC038C74DC04CC04BC04AC049C0C0
:1000100048C047C046C0E5C644C043C042C041C016
:1000200040C000003A00370000003B0038000000EC
:100030003900360001010101010101010202020142
:1000400002040810204080040201000000000004A7
:10005000030201000000BF0A11241FBECFE5D2E059
:10006000DEBFCDBF11E0A0E6B0E0E0E4FBE102C0FE
:1000700005900D92A032B107D9F721E0A0E2B1E0DE
:1000800001C01D92A337B207E1F710E0CCE2D0E047
:1000900003C02197FE0148DDCB32D107D1F759D7F4
:1000A0004DCDAECF8A31910538F04697969587951C
:1000B000969587950197F1F70895AF92BF92CF92E9
:1000C000DF92EF92FF920F931F93CF93DF936C0118
:1000D0007B018B01040F151FEB015E01AE18BF08F9
:1000E000C017D10759F06991D601ED91FC910190AB
:1000F000F081E02DC6010995892B79F7C501DF91C3
:10010000CF911F910F91FF90EF90DF90CF90BF9014
:10011000AF9008958230A1F018F4813069F008950D
:10012000833019F0843029F008958FB58F778FBD13
:1001300008958FB58F7DFBCF80B78F7780BF0895EF
:1001400080B78F7DFBCFCF93DF93282F30E0F9016D
:10015000E65BFF4F8491F901E15CFF4FD491F90117
:10016000EC5CFF4FC491CC2399F08111D3DFEC2FCD
:10017000F0E0EE0FFF1FE25DFF4FA591B491EC910F
:10018000ED2381E090E009F480E0DF91CF910895C4
:1001900080E090E0FACF1F93CF93DF93282F30E0D9
:1001A000F901E65BFF4F8491F901E15CFF4FD491C7
:1001B000F901EC5CFF4FC491CC23A1F0162F811103
:1001C000A9DFEC2FF0E0EE0FFF1FE85DFF4FA591D8
:1001D000B4918FB7F894EC91111108C0D095DE233B
:1001E000DC938FBFDF91CF911F910895DE2BF8CF65
:1001F000CF93DF93C7EED3E061E089E0CCDF86E404
:1002000090E050DF60E089E0C6DF88E290E04ADFFE
:10021000219791F7DF91CF910895CF93DF9390E0ED
:10022000FC01E15CFF4F24918C5C9F4FFC018491A9
:100230008823D1F090E0880F991FFC01EE5DFF4FFD
:10024000A591B491FC01E85DFF4FC591D491623056
:1002500071F49FB7F8943C91822F809583238C93FF
:10026000E8812E2B28839FBFDF91CF9108958FB710
:10027000F894EC912E2B2C938FBFF6CF3FB7F894C8
:100280008091300190913101A0913201B091330100
:1002900022B708B600FE05C02F3F19F00196A11D38
:1002A000B11D3FBFBA2FA92F982F8827BC01CD01C0
:1002B000620F711D811D911D46E0660F771F881F1B
:1002C000991F4A95D1F708958F929F92AF92BF924E
:1002D000CF92DF92EF92FF926B017C01CFDF4B0157
:1002E0005C01C114D104E104F104B1F0C7DF681965
:1002F00079098A099B09683E73408105910588F355
:1003000021E0C21AD108E108F10888EE880E83E0E6
:10031000981EA11CB11CE5CFFF90EF90DF90CF900D
:10032000BF90AF909F908F9008952FB7F8946091F1
:100330002C0170912D0180912E0190912F012FBFE2
:10034000089521E001C0220F6A95EAF7DC011C96AE
:100350002C931C971A965C934E931997ED91FC91F0
:100360000484F585E02D60E00994DC01ED91FC91B9
:100370000684F785E02D41E0099581E090E008953D
:10038000682F8AE591E0F1CFDC01ED91FC910684C4
:10039000F785E02D40E009940F931F93CF93DF93EF
:1003A000CDB7DEB728970FB6F894DEBF0FBECDBF2E
:1003B0000091900010919100209192003091930053
:1003C0000D831E832F833887009194001091950030
:1003D000209196003091970009831A832B833C83E8
:1003E00090916101691710F06FEF690F262F30E0CF
:1003F000409162012C0F3D1FF901403191F494307E
:1004000081F46181680F60688AE591E028960FB6F3
:10041000F894DEBF0FBECDBFDF91CF911F910F913A
:10042000B3CF6581EFCFEAE5F1E06581862F826089
:1004300085836A60CF01A8CFEAE5F1E065816D7F31
:1004400065836860CF01A0CFEF92FF920F931F9357
:10045000CF93DF938B01880F880F880F682F60641C
:100460008AE591E091DF82E090E00197F1F7E80101
:10047000085F1F4F84E0E82EF12C69918AE591E036
:1004800074DFC7010197F1F7C017D107B1F7DF910A
:10049000CF911F910F91FF90EF90089561E074DF6D
:1004A0008EEE91E00197F1F708950F931F93CF938C
:1004B000DF93EC01423018F08C8188608C834F838D
:1004C0006887222329F0413019F48C8184608C8361
:1004D00064E670E080E090E0F7DE6C8164FD53C07C
:1004E000E881F9810684F785E02D42E063E0CE01E2
:1004F00009958FE594E00197F1F7E881F981068489
:10050000F785E02D42E063E0CE01099500E210E0BE
:10051000C8010197F1F7E881F9810684F785E02D9C
:1005200042E063E0CE010995C8010197F1F7E88147
:10053000F9810684F785E02D42E062E0CE0109955D
:10054000C8010197F1F76C816062CE011DDF89E07F
:1005500090E00197F1F784E08D836CE0CE0114DF29
:10056000CE019CDF82E08E8366E0CE010DDFE88164
:10057000F9810484F585E02D6FEFCE01DF91CF91F5
:100580001F910F9109946062CE01FEDE8FE594E029
:100590000197F1F76C816062CE01F6DE00E210E0B7
:1005A000C8010197F1F76C816062CE01EDDEC8CF22
:1005B00008950895089590E080E0089580918B005B
:1005C000823059F020F460E0813069F00895833082
:1005D00039F061E0843039F0089561E082E0DCCEEA
:1005E00061E088E0FCCF8DE0FACF8F929F92AF92CE
:1005F000BF920F931F93CF93DF93CDB7DEB7A19731
:100600000FB6F894DEBF0FBECDBF19A2423008F47A
:100610004AE08E010F5D1F4F842E912CB12CA12C2E
:10062000A5019401BFD8E62FB901CA01EA303CF513
:10063000E05DD801EE938D01232B242B252B81F730
:1006400090E080E0109761F0FD0101900020E9F753
:100650003197AF014A1B5B0BBD018AE591E02DDDAF
:10066000A1960FB6F894DEBF0FBECDBFDF91CF913C
:100670001F910F91BF90AF909F908F900895E95C6C
:10068000D8CFFC0101900020E9F73197AF01481B5A
:10069000590BBC018AE591E010CD8F929F92AF92E9
:1006A000BF92CF92DF92EF92FF92CF93DF9319BC6C
:1006B00018BC6AE070E080E090E006DE1D9883E000
:1006C00087B9369A3699FECFC4B1D5B1C93E23E079
:1006D000D2070CF024D429DE653C794081059105D0
:1006E00010F02097B9F3809144019091450199BD94
:1006F00088BDBE01DD0F880B990B0ED96B017C0103
:100700002FE737E842E259EB93D9A701960190D938
:100710004B015C0120EB32E748E05FE3C701B60123
:1007200087D99B01AC01C501B4015FD82AE939E939
:1007300045E152E45AD820E030E040E05FE355D88C
:10074000B8D8CB01DF91CF91FF90EF90DF90CF90A1
:10075000BF90AF909F908F900895CF92DF92EF92CD
:10076000FF920F931F93CF93DF93DFDDAB01BC01AB
:100770008091250190912601A0912701B091280137
:100780008C599F4FAF4FBF4F481759076A077B07D8
:1007900008F458C082DF90932401809323010091D4
:1007A0003A0110913B01801B910B97FF03C091957B
:1007B00081959109C39764F010932401009323015C
:1007C000809122018F5F809322018B3018F0A7D394
:1007D00010922201C0912301D0912401809129011E
:1007E0008823C9F18CE390E08C1B9D0B67E070E0DF
:1007F0008AD990934501809344018091440190915E
:10080000450197FF02C090E080E0811524E0920747
:1008100014F08FEF93E0909345018093440199BDCC
:1008200088BD809123019091240190933B01809396
:100830003A017BDD609325017093260180932701A7
:1008400090932801DF91CF911F910F91FF90EF902E
:10085000DF90CF9008956091890070918A006C1BA1
:100860007D0B072E000C880B990B56D820E030E04A
:1008700040E151E4DDD86B017C016091440170914D
:100880004501072E000C880B990B46D82DEC3CEC4B
:100890004CE45EE3CDD89B01AC01C701B601A5D7FE
:1008A00008D8072E000C880B990B36D86B017C01F9
:1008B000BE01601B710B072E000C880B990B2CD806
:1008C00020E030E04CE951E4B3D89B01AC01C70112
:1008D000B6018AD7EED770934501609344018DCF5E
:1008E000CF92DF92EF92FF9220DD6B017C012AE034
:1008F000C20ED11CE11CF11C18DD6C157D058E05A6
:100900009F0510F42ADFF8CFFF90EF90DF90CF9093
:1009100008958AE018DC892B79F4809129018111EE
:100920000BC081E08093290187DD60E087E034DD42
:1009300082E026DD43DE77CD8AE005DC892B71F08D
:1009400080912901882351F01092290175DD60E022
:1009500087E022DD8EE191E094DEECCF0895DC9A11
:10096000DC9BFECF00C000C00000DE9800C000C0CD
:10097000DC98DE9A779905C083E08093460180E099
:10098000089581E008958EB98BE200C000C0000098
:100990008DB9CC9BFECF00C000C08DB9769BF5CF42
:1009A00000C000C000008FB19FEF9FB9D69A089594
:1009B000CF92DF92EF92FF920F931F93CF93DF932B
:1009C0000091590181E0809346018091470180FDAB
:1009D00003C083E080934601C2DF882311F10F5FDB
:1009E000102FC7E4D1E0DD24DA94CC24C3947E0137
:1009F0008FEFE81AF80A80914601837009F447C026
:100A0000DC9888818FB980EFBEDFD6988EEFBBDF90
:100A10009091460180FF12C081E090FF82E08093B8
:100A200046011092590180914601DF91CF911F91AB
:100A30000F91FF90EF90DF90CF900895892F8570F0
:100A4000843061F480914701816080934701C092B6
:100A5000460185DF811127C08AE0E1CF9E7F909318
:100A60004601E701115009F0C2CF10925901DE98FA
:100A7000DC9ACC9BFECF00C000C0DE9A00C000C054
:100A80000000759914C084E080934601CECFD698BB
:100A900080EF79DF8883113021F4DFB88EEF73DFC8
:100AA000E0CF1FB8FBCF102FC7E4D1E0DBCF80E051
:100AB000BCCFFC0123812223C1F0262F6181622B50
:100AC00060838281880F80934701808191E09093B9
:100AD0005901809348016CDF282F30E081E090E0DD
:100AE000232B11F090E080E0089530E020E0F6CF75
:100AF000EF92FF920F931F93CF938C01FC0184E040
:100B0000C0E0262F30E060FF02C09589C92BB901F3
:100B100075956795815031968111F3CF413011F46D
:100B2000F8014489F8016585C62BC42B7801FEE0E5
:100B3000EF0EF11CF80162896C2BC701BADFF801D6
:100B4000628960956C23C701CF911F910F91FF902F
:100B5000EF90AFCF0F931F93CF93DF93062F0F70BC
:100B6000423039F440E0602FDF91CF911F910F9117
:100B7000BFCF142FEC0170E084E0759567958A95DE
:100B8000E1F7CE01B5DF412F602FCE01EDCFFC01A3
:100B90008485882399F0218532852115310521F43A
:100BA000611107C0158606C021303105D9F76111E2
:100BB000F9CF85876585CF010E967BCF0895FF928B
:100BC0000F931F93CF93DF93EC01162F042FF22E78
:100BD0008B85888BDE9ADC9AD49AD69A8FEF8FB960
:100BE0008AE28DB980EF8EB9888910925901880FF9
:100BF00080934701DDDE81111CC081E0898BE0918B
:100C00002A01EF5FE0932A01F0E0E95BFE4F80816B
:100C10008E871F861C8260E0CE010E964ADF2F2D44
:100C2000402F612FCE01DF91CF911F910F91FF9047
:100C30003CCC198AF4CF7ED76AC5CF92DF92EF926F
:100C4000FF926C018AE0C816D1043CF48EE191E079
:100C500018DD8EE191E015DD04C084E6C816D104EC
:100C6000C4F30D2C000CEE08FF084AE0C701B601E2
:100C7000F7FE0AC08DE284DB66277727CB016C196B
:100C80007D098E099F094AE0FF90EF90DF90CF9099
:100C9000ACCCCF92DF92EF92FF92CF93DF93609133
:100CA000230170912401072E000C880B990B34D678
:100CB00023E333E343E35FE3BBD66B017C01609145
:100CC000380170913901072E000C880B990B24D63E
:100CD0002AE939E949E95EE3ABD69B01AC01C701DA
:100CE000B60183D5E6D57093390160933801209120
:100CF0003601309137012617370799F160E080E01F
:100D00004BDB809138019091390197DF8091380158
:100D10009091390190933701809336014FDCC09157
:100D20008900D0918A002091380130913901C21B8D
:100D3000D30BCE010496099758F4809120018111BC
:100D400007C080918800811153DA81E080932001EF
:100D5000D7FF03C0D195C195D1092A9714F01092FD
:100D600020012091890030918A0080913401909176
:100D7000350128173907B9F060E08BE00DDB809171
:100D8000890090918A0059DF8091890090918A00B2
:100D90009093350180933401DF91CF91FF90EF90D4
:100DA000DF90CF900BCCDF91CF91FF90EF90DF9051
:100DB000CF900895FF920F931F93CF93DF93EC0191
:100DC000F62E08811981C801A2D4F81619F06F2DEA
:100DD000C801A5D4CE01DF91CF911F910F91FF9053
:100DE00008951F920F920FB60F9211242F933F93E5
:100DF0008F939F93AF93BF9380912C0190912D017E
:100E0000A0912E01B0912F0130912B0120E3230FEF
:100E10002D3758F54096A11DB11D20932B018093CD
:100E20002C0190932D01A0932E01B0932F0180915E
:100E3000300190913101A0913201B09133010196BE
:100E4000A11DB11D8093300190933101A093320117
:100E5000B0933301BF91AF919F918F913F912F91AB
:100E60000F900FBE0F901F90189523EB230F419604
:100E7000A11DB11DD2CF1F920F920FB60F92112458
:100E80002F933F934F935F936F937F938F939F9392
:100E9000AF93BF93CF93DF93EF93FF9381E053D949
:100EA000EC0180E050D9209121012F7030E0CC0F6F
:100EB000DD1FC82B220F331F220F331F28563F4F31
:100EC000C20FD32FD11D88818093210180912101F0
:100ED00080738031E1F480913C0190913D01019655
:100EE00090933D0180933C01FF91EF91DF91CF9171
:100EF000BF91AF919F918F917F916F915F914F9132
:100F00003F912F910F900FBE0F901F901895803238
:100F100059F780913C0190913D010197E1CF19BCB7
:100F200018BC8AE591E0BADA87DA88EC90E0A9DBB0
:100F300061E080E031DA84ED90E0A3DBC4E0D0E052
:100F400057D964E670E080E090E0BED92197C1F700
:100F5000FFCFCF93DF9300D0CDB7DEB7789480B7C3
:100F6000826080BF80B7816080BF83B7826083BFAB
:100F700083B7816083BF89B7816089BF1EBC8EB58E
:100F800082608EBD8FB581608FBD3298319A309A64
:100F9000379A83E881BF62E080E03FD962E081E078
:100FA0003CD962E082E039D962E08AE036D961E07A
:100FB00085E033D961E089E030D961E088E02DD95E
:100FC00090E080E039DE082F81E090E035DE182FD8
:100FD000109343010093420182E090E02DDEF82E51
:100FE00083E090E029DE982F8F2D9093410180932C
:100FF000400184E090E020DEF82E85E090E01CDEE9
:10100000982F8F2D90933F0180933E0186E090E0D2
:1010100013DE91E0811101C090E0909388000F3FB2
:101020001F4FA9F48CED90E090934301809342010F
:1010300084E091E090934101809340018CE291E043
:1010400090933F0180933E0181E08093880083E28A
:101050008FBD81E08EBD19BC18BC8BB780618BBF82
:1010600082B3836082BB789420E042E060E18AE54D
:1010700091E0A5DD60E870E081E0E6D968E770E026
:1010800082E0E2D960E770E083E0DED968E670E0F4
:1010900084E0DAD960E670E085E0D6D98AE591E0AF
:1010A000FDD9FBDA90933B0180933A01909339018B
:1010B0008093380182E047D8892B09F0FBC081EE8C
:1010C00090E0DFDA84E05CD980918800882309F41D
:1010D0004AC085E055D98DE191E0D3DA81E050D95D
:1010E00061E080E059D98091420190914301A5DDF2
:1010F0008DEE90E0C6DA80914001909141019DDD36
:1011000081EF90E0BEDA80913E0190913F0195DD44
:1011100084EF90E0B6DA87D9E3DB82E014D8892B3C
:10112000D9F315E082E00FD820918B00892B19F4B8
:10113000223009F4CDC080913C01820F10923D0114
:1011400010923C01853098F010938B0061E08DE0A7
:1011500023D982E0F8D700918B00892B11F402305B
:10116000E1F4BEDBDFCF8EE191E08BDAB4CF811109
:1011700001C081E080938B00833049F0843051F0CE
:1011800060E0823011F08CE0E3CF8FE0E1CF61E0EE
:1011900082E0DECF61E088E0DBCFA2DB80913C0122
:1011A00090913D01892BA9F2033009F443C038F432
:1011B000013051F110923D0110923C01CACF043030
:1011C00009F458C00530B1F761E08BE0E5D88091B3
:1011D0003E0190913F0120913C0130913D01820FF1
:1011E000931F8233910514F482E390E0813921E06A
:1011F000920714F080E991E090933F0180933E01C3
:101200001CDD61E08DE010C080918800082700930C
:10121000880060E08CE0C0D880918800882331F09D
:1012200085E0AED860E08CE0B7D8C4CF8EE191E025
:1012300028DAF8CF61E080E0AFD880914201909148
:10124000430120913C0130913D01820F931F823375
:10125000910514F482E390E08139E1E09E0714F0F7
:1012600080E991E09093430180934201E6DC61E0E4
:1012700082E0DACF61E086E08FD8809140019091E2
:10128000410120913C0130913D01820F931F823337
:10129000910514F482E390E08139F1E09F0714F0A6
:1012A00080E991E09093410180934001C6DC61E0C8
:1012B00088E0BACF87EF90E0E4D961E080E06CD8B5
:1012C00087E091E0DED96CED75E080E090E0FCD73E
:1012D00060914201109143011A821982CE01019658
:1012E00069DD81E090E09A838983612FCE010196C8
:1012F00061DD609140011091410182E090E09A83AC
:101300008983CE01019656DD83E090E09A8389833C
:10131000612FCE0101964EDD60913E0110913F019B
:1013200084E090E09A838983CE01019643DD85E0D5
:1013300090E09A838983612FCE0101963BDD609115
:10134000880086E090E09A838983CE01019632DDA1
:101350008AE591E0A3D880913801909139016DDC44
:101360008091380190913901909337018093360133
:1013700088E191E086D983E003D88091890090913B
:101380008A005BDC8091890090918A0090933501FE
:101390008093340184EF90E074D961E080E0FCD761
:1013A000809142019091430148DC8DEE90E069D933
:1013B000809140019091410140DC81EF90E061D942
:1013C00080913E0190913F0138DC84EF90E059D943
:1013D00081E080938B0060E08DE0DED724D8DD24AF
:1013E000D39484E6482E512C612C712C90E9892EDF
:1013F00099249394A12CB12C22E5222E20E0322EA8
:1014000030E0E32E30E0F32EA8D943DC82E09BD617
:10141000892B69F580918B00823048F561DA82E092
:1014200092D6892B19F599D934DC73DA80913C0175
:1014300090913D01009799F32091890030918A00A5
:1014400010923D0110923C01820F931F823391054F
:1014500014F482E390E08139E1E09E0714F080E922
:1014600091E090938A0080938900D9CF39DA209156
:101470003C0130913D012115310579F080918B00BF
:1014800010923D0110923C01820F09F481E08530F9
:1014900008F084E080938B0091D882E054D6892BA9
:1014A00059F580918B00813039F18330A9F0843077
:1014B000C1F0823041F480914201909143019093B8
:1014C0008A00809389000CDA82E03DD6892B71F482
:1014D00044D9DFDB1EDAF8CF8091400190914101C1
:1014E000EECF80913E0190913F01E9CFF9D9D092A2
:1014F0008B0060E08DE050D70CDA80914401909130
:1015000045010B970CF1ACD0A30192012FD18B01B7
:1015100005511F4F61E088E080D60F3F110521F48F
:1015200061E088E038D60BC0F10184918230E1F0AF
:1015300088F48130A9F780B7806880BF06BF90D05B
:10154000A501940113D1C0D6E114F10409F45CCFD4
:1015500057D55ACF833069F0843011F78FB5806248
:101560008FBD19BD08BDEBCF80B7806280BF0CBFB7
:10157000E6CF8FB580688FBD1BBD0ABDE0CFEAE521
:10158000F1E01382128288EB90E091838083108ACD
:101590008FEF87871686118A87E2838714861586E0
:1015A0001286118684E0828B82E0838B81E0848BBB
:1015B00080E1858B80E2868B80E4878B80E8808F5A
:1015C00050E040E063E0CF01BCC68F929F92AF92A3
:1015D000BF92CF92DF92EF92FF92CF93DF93EC0115
:1015E000688179818A819B816115710581059105E9
:1015F00021F464E279ED8BE597E02DE133EF41E0F2
:1016000050E0B4D049015A0127EA31E440E050E00B
:1016100094D06B017C012CEE34EF4FEF5FEFC501EE
:10162000B4018BD0C60ED71EE81EF91EF7FE06C009
:1016300081E0C81AD108E10880E8F80AC882D98296
:10164000EA82FB82C701B6019F77DF91CF91FF90BD
:10165000EF90DF90CF90BF90AF909F908F900895C4
:101660008F929F92AF92BF92CF92DF92EF92FF92B2
:1016700060918C0070918D0080918E0090918F0010
:10168000611571058105910521F464E279ED8BE521
:1016900097E02DE133EF41E050E068D049015A0175
:1016A00027EA31E440E050E048D06B017C012CEEA9
:1016B00034EF4FEF5FEFC501B4013FD0C60ED71E28
:1016C000E81EF91EF7FE06C081E0C81AD108E1083D
:1016D00080E8F80AC0928C00D0928D00E0928E00D3
:1016E000F0928F00C701B6019F77FF90EF90DF90D7
:1016F000CF90BF90AF909F908F90089560938C0093
:1017000070938D0080938E0090938F000895E199DF
:10171000FECF9FBB8EBBE09A99278DB30895262FED
:10172000E199FECF1CBA9FBB8EBB2DBB0FB6F894C0
:10173000E29AE19A0FBE01960895EE27FF27AA27A5
:10174000BB2708C0A20FB31FE41FF51F220F331FD2
:10175000441F551F969587957795679598F3704028
:10176000A9F7009799F7BD01CF010895052E97FBC2
:1017700016F400940FD057FD05D014D007FC02D00A
:1017800046F408C050954095309521953F4F4F4FF6
:101790005F4F089590958095709561957F4F8F4F1D
:1017A0009F4F0895A1E21A2EAA1BBB1BFD010DC07D
:1017B000AA1FBB1FEE1FFF1FA217B307E407F50701
:1017C00020F0A21BB30BE40BF50B661F771F881FDD
:1017D000991F1A9469F760957095809590959B0173
:1017E000AC01BD01CF0108955058BB27AA270ED0E8
:1017F000E5C0D6D030F0DBD020F031F49F3F11F4BB
:101800001EF4CBC00EF4E095E7FBC1C0E92FE7D092
:1018100080F3BA17620773078407950718F071F40D
:101820009EF5FFC00EF4E0950B2EBA2FA02D0B01F4
:10183000B90190010C01CA01A0011124FF27591B15
:1018400099F0593F50F4503E68F11A16F040A22F1B
:10185000232F342F4427585FF3CF4695379527958C
:10186000A795F0405395C9F77EF41F16BA0B620B8B
:10187000730B840BBAF09150A1F0FF0FBB1F661FD2
:10188000771F881FC2F70EC0BA0F621F731F841F15
:1018900048F4879577956795B795F7959E3F08F03B
:1018A000B3CF9395880F08F09927EE0F97958795FA
:1018B000089504D06894B111B5C0089598D088F007
:1018C0009F5790F0B92F9927B751A0F0D1F0660F2C
:1018D000771F881F991F1AF0BA95C9F712C0B13047
:1018E00081F09FD0B1E008959CC0672F782F8827A2
:1018F000B85F39F0B93FCCF3869577956795B39586
:10190000D9F73EF490958095709561957F4F8F4FF4
:101910009F4F0895E89409C097FB3EF490958095F9
:10192000709561957F4F8F4F9F4F9923A9F0F92FA5
:1019300096E9BB279395F695879577956795B79523
:10194000F111F8CFFAF4BB0F11F460FF1BC06F5F09
:101950007F4F8F4F9F4F16C0882311F096E911C01B
:10196000772321F09EE8872F762F05C0662371F03C
:1019700096E8862F70E060E02AF09A95660F771F50
:10198000881FDAF7880F9695879597F9089597F944
:101990009F6780E870E060E008959FEF80EC089515
:1019A00000240A941616170618060906089500243E
:1019B0000A9412161306140605060895092E0394B8
:1019C000000C11F4882352F0BB0F40F4BF2B11F42C
:1019D00060FF04C06F5F7F4F8F4F9F4F089557FD8B
:1019E0009058440F551F59F05F3F71F04795880F8D
:1019F00097FB991F61F09F3F79F087950895121624
:101A000013061406551FF2CF4695F1DF08C01616CF
:101A100017061806991FF1CF869571056105089480
:101A20000895E894BB2766277727CB0197F9089597
:101A30000AD0C4CFB5DF28F0BADF18F0952309F03B
:101A4000A6CFABCFEFCFCBDFA8F39923D9F35523A4
:101A5000C9F3950F50E0551FAA27EE27FF27BB2794
:101A600000240894679520F4E20FF31FB41F0A1EA8
:101A7000220F331F441FAA1F6695A9F7779530F4EC
:101A8000F30FB41F0A1E121E08F46395330F441F90
:101A9000AA1F221F769599F7879520F4B40F0A1E86
:101AA000121E631F440FAA1F221F331F8695A9F71A
:101AB000862F712D602D11249F5750408AF0E1F040
:101AC00088234AF0EE0FFF1FBB1F661F771F881F7A
:101AD00091505040A9F79E3F510570F058CFA2CFCA
:101AE0005F3FECF3983EDCF3869577956795B79565
:101AF000F795E7959F5FC1F7FE2B880F911D96958F
:101B0000879597F908950024552704C0080E591F9A
:101B1000880F991F009729F076956795B8F371059E
:101B2000B9F7802D952F0895EE0FFF1F0590F491C2
:101B3000E02D099481E090E0F89400C0F894FFCF84
:101B40000408101C1008040001030F0F0F0301000C
:101B50000004061F1F060400000E1517110E0000DA
:101B6000040E1F04041C0000013C000101000000E1
:101B70000040145400401050000204000300011003
:101B80000302000003020100060004000605002015
:101B90000605040000000000B5015D00DB02DA026A
:101BA000DF05A101C705AA05202020205741524E7C
:101BB000554E47002020204CEF74737069747A658D
:101BC000005374616E646172643A202000DF20204B
:101BD00000DF2000DF4300536F6C646572556E694F
:101BE000742056312E34006279204F4531434753DB
:101BF0002F4F453953415500DF432020202020003E
:00000001FF
